:1000000000040020E1000000ED000000ED00000011
:1000100082B01E4B2022C3F808210023019302E086
:10002000019B01330193019BC72BF9D9184BD3F8DE
:10003000002442F00802C3F80024D3F81C2542F043
:100040000802C3F81C2513E0019B01330193019AB8
:10005000104B9A42F8D90E4AD2F8FC3323F0080329
:10006000C2F8FC3300230193019A0A4B9A4209D942
:10007000074AD2F8FC3343F00803C2F8FC330023EC
:100080000193E4E7019B01330193EDE700E00F40AA
:10009000005002403F0D03000C4B0D4AA2EB030C35
:1000A00000210C4A04E012F8010B03F8010B0131A6
:1000B0006145F8D3084B0948C01A002203E000212B
:1000C00003F8011B01328242F9D37047000000207F
:1000D00000000020F40000000000002000040020C8
:1000E00008B5FFF7D9FFFFF793FF08BD08B5FFF785
:0400F000F7FF08BD51
:00000001FF
